:020000040800F2
:10000000D00500204901000801180008ED0B000888
:100010002516000849080008C9280008000000004B
:10002000000000000000000000000000791C000833
:100030004D0800080000000075180008F51E0008B3
:100040006301000863010008630100086301000800
:1000500063010008630100086301000863010008F0
:1000600063010008630100086301000863010008E0
:1000700063010008630100086301000863010008D0
:1000800063010008630100086301000863010008C0
:1000900063010008630100086301000863010008B0
:1000A00063010008630100086301000863010008A0
:1000B0006301000863010008630100086301000890
:1000C0006301000863010008630100086301000880
:1000D000630100083926000863010008952600081E
:1000E0006301000863010008630100086301000860
:1000F0006301000863010008630100086301000850
:10010000630100086301000863010008630100083F
:100110006301000815250008630100086301000859
:10012000630100086301000863010008630100081F
:10013000DFF810D000F040FA004800470D2E00080C
:10014000AFF30080D00500200648804706480047EE
:10015000FEE7FEE7FEE7FEE7FEE7FEE7FEE7FEE777
:10016000FEE7FEE74D1F000831010008D2B201E0B2
:1001700000F8012B491EFBD270470022F6E710B5AC
:1001800013460A4604461946FFF7F0FF204610BD05
:100190002DE9FE4F804681EA0300C00F0C46009017
:1001A00021F0004123F00045B8EB0200A94105D23F
:1001B0004046214690461C460B46024623F000402E
:1001C000104347D0270DC7F30A00C3F30A5102902A
:1001D000401A019040286BDAC3F3130040F4801BEF
:1001E0000098924620B10023D2EB030A63EB0B0B7D
:1001F00001985946C0F14002504600F04EF90646BB
:100200000D4650465946019A00F066F910EB080079
:100210006141002487EA115284EAE7731A4340D00F
:10022000009A62B3019A012A4FEA075215DC001BBB
:1002300061EB02014FF0004202EA0752CDE90042B1
:10024000001C41F5801132462B4600F066F903B0E0
:10025000BDE8F08F40462146F9E7001B61EB020143
:10026000001C41F5801300185B412018A2F500170F
:1002700047EB030140EAD570B6196D4111E06D08F6
:100280004FEA360645EAC0754FEA0752001B61EB9C
:100290000201001C41F5801149084FEA30000019A5
:1002A000514132462B4603B0BDE8F04F00F026B96D
:1002B0000098012240000023D0EB020263EBE073C0
:1002C000009821464FEAE074B8EB000061EB0401AE
:1002D000E9E783F000435BE781F0004158E72DE94F
:1002E000FE4F81EA030404F0004421F00041009431
:1002F0004FF0000B23F0004350EA01045ED052EAB5
:1003000003045BD0C3F30A54C1F30A552C44A4F28E
:10031000F3340194A0FB0254C1F3130141F48011A2
:10032000C3F3130343F4801301FB024400FB034EA9
:10033000840A970A44EA815447EA8357A4FB076872
:1003400002958D0A05FB07854FEA932C04FB0C549C
:100350002705029D4FEA065847EA1637B5EB080510
:100360006EEB070C870E920E47EA811742EA831262
:10037000A7FB0201B6EB0B0164EB00042B0D43EA73
:100380000C335E1844EB1C50DA465146E7FB020181
:10039000C5F313044FEA0B3343EA14534FEA043214
:1003A000019C43EA0603A4F10C040294009CCDE9ED
:1003B00000B400F0B2F803B0BDE8F08F00200146B1
:1003C000F9E70EB5C10F80EAE0700844CA070021C2
:1003D00040F233438DE80E000A460B4600F09DF8CC
:1003E00003B000BD0EB540F2334102910021CDE9CA
:1003F00000110A460B4600F090F803B000BD70B53E
:10040000C1F30A5201F000450024C1F3130140F288
:10041000FF3341F480119A4201DA002070BD40F2AE
:1004200033439A42A2F2334203DC524200F044F8D2
:1004300000E090402C43F1D0404270BDC1F30A521D
:1004400010B5C1F3130140F2FF3341F480119A4219
:1004500001DA002010BD40F233439A42A2F2334247
:1004600003DC524200F028F810BD904010BD30B5BA
:100470000B46014600202022012409E021FA02F562
:100480009D4205D303FA02F5491B04FA02F52844FC
:10049000151EA2F10102F1DC30BD202A04DB203A56
:1004A00000FA02F1002070479140C2F1200320FAC7
:1004B00003F3194390407047202A04DB203A21FAC5
:1004C00002F00021704721FA02F3D040C2F120026D
:1004D0009140084319467047202A06DBCB17203A83
:1004E00041FA02F043EAE07306E041FA02F3D04039
:1004F000C2F12002914008431946704710B5141EFE
:1005000073F1000408DA401C41F1000192185B41CC
:100510001A4301D120F0010010BD2DE9F04D9246A3
:100520009B4611B1B1FA81F202E0B0FA80F22032BA
:100530009046FFF7B2FF04460F4640EA0A0041EA40
:100540000B0153465A46084313D0114653EA0100A3
:1005500019D0C8F140025046FFF7AEFF05460E46DF
:10056000504659464246FFF798FF084305D0012000
:1005700004E020463946BDE8F08D0020054346EAF8
:10058000E0762C4337430A986305E40AA0EB0800A1
:100590000022FD0A44EA47540A3002D500200146F1
:1005A000E9E7010510196941DDE9084500196941CC
:1005B000BDE8F04DA2E70000064C074D06E0E068FC
:1005C00040F0010394E8070098471034AC42F6D39A
:1005D000FFF7B2FD98420008B842000808B50121B3
:1005E000042001F059F90020009010208DF803003C
:1005F00003208DF802004FF40040ADF8000069467A
:10060000044800F0CCF900224FF40041014800F00A
:10061000A6FA08BD0008014000B587B001211020EE
:1006200001F03AF90121202001F036F9002006906E
:1006300018208DF81B0003208DF81A004FF480500D
:10064000ADF8180006A9244800F0A9F904208DF897
:100650001B00ADF8180006A9204800F0A0F9012100
:10066000080501F009F9002002900390049005901C
:100670004FF4165002900C20ADF812000020ADF897
:100680001000ADF80E00ADF80C0002A9144802F0FD
:10069000ABF80020019035208DF8040000208DF883
:1006A00005008DF8060001208DF8070001A801F073
:1006B000A9F8012240F22551094802F06FF8012201
:1006C00040F22441064802F069F80121044802F092
:1006D00022F807B000BD00000010014000140140E6
:1006E0000050004070B55248007D00B970BD5048C0
:1006F000057844780A2D14D2DFE805F0920514231A
:100700009233546574832CB901220221494800F0C8
:1007100026FA06E0012C04D100220221454800F00F
:100720001EFA7DE02CB901220421424800F017FA9C
:1007300006E0012C04D1002204213E4800F00FFA0B
:100740006EE034B900224FF400413B4800F007FA54
:1007500006E0012C04D10122D103374800F0FFF953
:100760005EE00021354801F0C2FD0021334801F070
:10077000C0FD0021324801F0BAFD0021304801F0EF
:10078000B8FD00212E4801F0B6FD00212C4801F0F3
:10079000B4FD0021294801F0AEFD0021274801F0F9
:1007A000ACFD3DE04FF4167000F0DCFF4FF4167026
:1007B00000F0BEFF40F28A2001F008F840F28A20E3
:1007C00000F0EAFF2CE01F4800F0CCFF1D4800F0CD
:1007D000AFFF1C48323800F0F9FF1A48323800F0F9
:1007E000DBFF1DE0322000F0BDFF322000F0A0FF53
:1007F00040F2523000F0EAFF4FF4487000F0CCFFB6
:100800000EE040F2EE2000F0ADFF4FF42F7000F04C
:100810008FFF962000F0DAFF962000F0BDFF00BFAA
:1008200000BF002002490861087500BF5EE70000B4
:10083000B00000200010014000080140000400400A
:1008400000080040A8FDFFFF00BFFEE7704770B53D
:100850004FF47A7300FB03F1002247E000BF00BFB2
:1008600000BF00BF00BF00BF00BF00BF00BF00BF90
:1008700000BF00BF00BF00BF00BF00BF00BF00BF80
:1008800000BF00BF00BF00BF00BF00BF00BF00BF70
:1008900000BF00BF00BF00BF00BF00BF00BF00BF60
:1008A00000BF00BF00BF00BF00BF00BF00BF00BF50
:1008B00000BF00BF00BF00BF00BF00BF00BF00BF40
:1008C00000BF00BF00BF00BF00BF00BF00BF00BF30
:1008D00000BF00BF00BF00BF00BF00BF00BF00BF20
:1008E00000BF00BF00BF00BF00BF00BF13460C46E3
:1008F000491E62F100020026744073401C43ADD1D2
:1009000070BD47E000BF00BF00BF00BF00BF00BF19
:1009100000BF00BF00BF00BF00BF00BF00BF00BFDF
:1009200000BF00BF00BF00BF00BF00BF00BF00BFCF
:1009300000BF00BF00BF00BF00BF00BF00BF00BFBF
:1009400000BF00BF00BF00BF00BF00BF00BF00BFAF
:1009500000BF00BF00BF00BF00BF00BF00BF00BF9F
:1009600000BF00BF00BF00BF00BF00BF00BF00BF8F
:1009700000BF00BF00BF00BF00BF00BF00BF00BF7F
:1009800000BF00BF00BF00BF00BF00BF00BF00BF6F
:1009900000BF00BF011EA0F10100B3D170472DE9D7
:1009A000F0410246002500260020002300240027F5
:1009B00091F803C00CF00F0591F803C00CF0100C77
:1009C000BCF1000F03D091F802C04CEA050591F884
:1009D00000C0BCF1000F31D0146800202BE04FF0B4
:1009E000010C0CFA00F3B1F800C00CEA03069E42B9
:1009F00020D183004FF00F0C0CFA03F7BC4305FA2B
:100A000003FC4CEA040491F803C0BCF1280F06D1A2
:100A10004FF0010C0CFA00FCC2F814C00AE091F887
:100A200003C0BCF1480F05D14FF0010C0CFA00FCDB
:100A3000C2F810C0401C0828D1D31460B1F800C01F
:100A4000BCF1FF0F34DD546800202EE000F1080CEB
:100A50004FF0010808FA0CF3B1F800C00CEA0306E5
:100A60009E4221D183004FF00F0C0CFA03F7BC43D8
:100A700005FA03FC4CEA040491F803C0BCF1280F0A
:100A800005D100F1080C08FA0CF8C2F8148091F8AE
:100A900003C0BCF1480F07D100F1080C4FF001086A
:100AA00008FA0CF8C2F81080401C0828CED3546015
:100AB000BDE8F081F0B50A4600230024002100259E
:100AC00000F00046B6F1004F02D11D4EF16901E081
:100AD0001B4E7168C0F3034583B200F44016B6F5AF
:100AE000401F08D121F07061154E766826F07066BF
:100AF000134F7E6012E000F48016B6F5801F06D119
:100B0000032606FA05F4A14341F0706106E0460DA4
:100B1000360103FA06F6B14341F0706122B1460D89
:100B2000360103FA06F6314300F00046B6F1004FF5
:100B300002D1034EF16101E0014E7160F0BD000091
:100B4000000001400246002093680B400BB10120D9
:100B500000E00020704741617047016170470AB1B1
:100B6000016100E04161704710B51D480078052122
:100B700090FBF1F201FB120030B1012825D00228D0
:100B800026D003282AD126E00021164801F0B3FB25
:100B90000021144801F0B1FB0021134801F0ABFB28
:100BA0000021114801F0A9FB00210F4801F09FFB33
:100BB00000210D4801F09DFB00210A4801F097FB40
:100BC0000021084801F095FB08E0FFF78BFD05E0E8
:100BD00000F026F802E001F079FE00BF00BF10BD72
:100BE00014000020000800400004004000BFFEE7A1
:100BF00008B50121102000F04FFE002000900420D5
:100C00008DF8030003208DF802004FF47860ADF8F2
:100C1000000069460148FFF7C2FE08BD0010014010
:100C200010B580217448FFF78DFF04464FF48071A2
:100C30007148FFF787FF44EA40044FF400716E48A3
:100C4000FFF780FF44EA80044FF480616A48FFF7B1
:100C500079FF44EAC0044FF400616748FFF772FF70
:100C600044EA0010062872D006DC052821D2DFE80D
:100C700000F010B292A32E0010286AD004DC0828DD
:100C800045D00C2815D133E018284FD01F28F9D1B2
:100C900010E04FF4FA7000F065FD4FF4FA7000F0C8
:100CA00047FD40F2262000F091FD40F2262000F0A2
:100CB00073FD9FE0002000F055FD002000F038FD9E
:100CC000002000F083FD002000F066FD92E04FF46C
:100CD000FA7000F047FD4FF4FA7000F029FD40F281
:100CE000262000F073FD40F2262000F055FD81E043
:100CF000322000F037FD322000F01AFD4FF42F7043
:100D000000F064FD40F2EE2000F046FD72E032207B
:100D100000F028FD322000F00BFD4FF42F7000F0A2
:100D200055FD40F2EE2000F037FD63E06FF09500D6
:100D300000F018FD6FF0310000F0FAFC4FF448703D
:100D400000F044FD4FF4487000F026FD52E011E041
:100D5000FFE76FF0950000F005FD6FF0310000F047
:100D6000E7FC4FF4487000F031FD4FF4487000F09C
:100D700013FD3FE040F28A2000F0F4FC4FF41670BF
:100D800000F0D6FC4FF4967000F020FD4FF4967002
:100D900000F002FD2EE040F28A2000F0E3FC4FF468
:100DA000167000F0C5FC4FF4967000F00FFD4FF484
:100DB000967000F0F1FC1DE04FF4487000F0D2FC9A
:100DC0004FF4487000F0B4FCC82000F0FFFCC820CD
:100DD00000F0E2FC0EE04FF4487000F0C3FC4FF46A
:100DE000487000F0A5FCC82000F0F0FCC82000F01E
:100DF000D3FC00BF00BF10BD0010014010B50121A1
:100E0000084600F049FD01210148FFF753FE10BDDF
:100E10000002300008B50121042000F03DFD002053
:100E2000009004208DF8030003208DF802000120BB
:100E3000ADF8000069460248FFF7B1FD08BD0000AB
:100E40000008014010B501211048FFF77BFE28B9CA
:100E50000F480068401C0E49086014E00C48006808
:100E6000322804D900200A490860022010BD084831
:100E700000680F2804D90020054908600120F5E723
:100E80000020034908600020F0E70000000801404E
:100E9000200000202DE9F04104460D4616461F466D
:100EA0002A2000F077FBA11C88B200F064FBB11C83
:100EB00088B200F060FB2B2000F06CFB691C88B24C
:100EC00000F059FB791C88B200F055FB2C2000F093
:100ED00061FBBDE8F08170B504460D4616462B4611
:100EE000224629462046FFF7D5FF304600F043FB57
:100EF00070BD2DE9F04706460F4614461D46DDF845
:100F00002090A01BE91B48431FFA80FA681E83B299
:100F1000601E82B239463046FFF7BCFF4FF0000832
:100F200006E0484600F027FB08F101001FFA80F8B0
:100F3000D045F6DBBDE8F08710B500F027FD4FF493
:100F400080517B48FFF707FE6420FFF780FC4FF4D9
:100F500080517748FFF701FE6420FFF778FC1021ED
:100F60007448FFF7FAFD6420FFF771FC112000F0D0
:100F700011FB7820FFF76BFCB12000F00BFB052084
:100F800000F002FB3C2000F0FFFA3C2000F0FCFAED
:100F9000B22000F0FFFA052000F0F6FA3C2000F045
:100FA000F3FA3C2000F0F0FAB32000F0F3FA052049
:100FB00000F0EAFA3C2000F0E7FA3C2000F0E4FA06
:100FC000052000F0E1FA3C2000F0DEFA3C2000F0C1
:100FD000DBFAB42000F0DEFA032000F0D5FAC020DE
:100FE00000F0D8FA282000F0CFFA082000F0CCFA60
:100FF000042000F0C9FAC12000F0CCFAC02000F0B3
:10100000C3FAC22000F0C6FA0D2000F0BDFA00209D
:1010100000F0BAFAC32000F0BDFA8D2000F0B4FA57
:101020002A2000F0B1FAC42000F0B4FA8D2000F0BC
:10103000ABFAEE2000F0A8FAC52000F0ABFA1A20B7
:1010400000F0A2FA362000F0A5FAC02000F09CFAC9
:10105000E02000F09FFA042000F096FA222000F031
:1010600093FA072000F090FA0A2000F08DFA2E2063
:1010700000F08AFA302000F087FA252000F084FA88
:101080002A2000F081FA282000F07EFA262000F0C5
:101090007BFA2E2000F078FA3A2000F075FA002052
:1010A00000F072FA012000F06FFA032000F06CFAF1
:1010B000132000F069FAE12000F06CFA042000F03F
:1010C00063FA162000F060FA062000F05DFA0D20A9
:1010D00000F05AFA2D2000F057FA262000F054FABA
:1010E000232000F051FA272000F04EFA272000F0CC
:1010F0004BFA252000F048FA2D2000F045FA3B205D
:1011000000F042FA002000F03FFA012000F03CFA23
:10111000042000F039FA132000F036FA3A2000F0EB
:1011200039FA052000F030FA292000F033FA10BD1A
:10113000000C0140000801402DE9FF5F06468A4689
:1011400090469B460F9D002002900096284605EB96
:10115000D071C1F347042046E21704EB5272D2105B
:101160002146E31704EB5373DB10A4EBC3030BB16D
:10117000012300E000231A446A4392B20192A8F1CD
:10118000200000F0FF080AEB0500401E83B2301972
:10119000401E82B251463046FFF77CFE002753E0E6
:1011A0000C2D07D108EB48002A4901EB8000C05DF7
:1011B000039009E0102D05D1274800EB0810C05D11
:1011C000039001E0BDE8FF9F4FF0000936E0109862
:1011D000C8B9012000FA09F00399084018B158462F
:1011E00000F0C9F902E00E9800F0C5F90298401C21
:1011F000C0B20290029890FBF4F104FB1100C8B950
:10120000002002901DE0012000FA09F00399084037
:1012100020B15A4651463046FFF75DFE701C86B23B
:101220000098301AA04205D1009E0AF101001FFA71
:1012300080FA06E009F1010000F0FF09B9F1080F9A
:10124000C5DB00BF781C87B201988742A8DB00BFCE
:10125000B8E70000D83100084C3600082DE9FE4FF1
:101260000646894615469A46DDE90D480C9F1CE066
:101270000C2C09D153462A4649463046CDE901484F
:10128000009700F017F80DE0102C09D153462A46BC
:1012900049463046CDE90148009700F0AFF801E03B
:1012A000BDE8FE8FAD1C301986B228780028DFD14A
:1012B00000BFF5E72DE9FF5F0646894692469B464B
:1012C0000F9C0020039000962046E21704EB527218
:1012D000D2102146E31704EB5373DB10A4EBC303D6
:1012E0000BB1012300E000231A44624392B2019241
:1012F00005200290002579E005EB850000EBC50094
:101300003D4911F810009AF8001088426BD105EBA6
:10131000850000EBC500384901EB400040789AF8A1
:10132000011088425FD109EB0400401E83B23019DE
:10133000401E82B249463046FFF7ACFD00274FE021
:101340004FF0000846E0109808BB05EB850000EB65
:10135000C500294901EB4000801CC05D012101FA54
:1013600008F1084018B1584600F005F902E00E985F
:1013700000F001F90398401CC0B20390039890FB61
:10138000F4F104FB110008BB0020039025E005EBFD
:10139000850000EBC500184901EB4000801CC05DD2
:1013A000012101FA08F1084020B15A464946304669
:1013B000FFF791FD701C86B20098301AA04205D14B
:1013C000009E09F101001FFA80F906E008F1010012
:1013D00000F0FF08B8F1080FB5DB00BF781CC7B2FA
:1013E00001988742ACDB00BF681C85B20298854239
:1013F00082DBBDE8FF9F00003C3C00082DE9FF5F59
:101400000646894692469B460F9C00200390009614
:101410002046E21704EB5272D2102146E31704EB88
:101420005373DB10A4EBC3030BB1012300E00023D3
:101430001A44624392B201922C200290002571E07E
:1014400005EB05103A4911F810009AF8001088428F
:1014500065D105EB0510364901EB400040789AF85C
:10146000011088425BD109EB0400401E83B23019A1
:10147000401E82B249463046FFF70CFD00274BE084
:101480004FF0000842E01098F8B905EB0510284924
:1014900001EB4000801CC05D012101FA08F1084009
:1014A00018B1584600F067F802E00E9800F063F8B3
:1014B0000398401CC0B20390039890FBF4F104FB26
:1014C0001100F8B90020039023E005EB051018493E
:1014D00001EB4000801CC05D012101FA08F10840C9
:1014E00020B15A4649463046FFF7F5FC701C86B2DB
:1014F0000098301AA04205D1009E09F101001FFAA0
:1015000080F906E008F1010000F0FF08B8F1080FCB
:10151000B9DB00BF781CC7B201988742B0DB00BFBF
:10152000681C85B2029885428ADBBDE8FF9F0000F7
:10153000BE3C00082DE9FE4F06460F46144698466D
:10154000DDE90D5ADDF8309010E0CDE9015ACDF813
:1015500000902278434639463046FFF7EDFD284695
:1015600005EBD07106EB61018EB2641C2078002877
:10157000EBD1BDE8FE8F10B50446201200F01CF838
:10158000E0B200F019F810BD10B50446204600F096
:1015900013F810BD10B504464FF480510548FFF70D
:1015A000DAFA204600F008F84FF480510148FFF7BE
:1015B000D4FA10BD0008014010B5044620210548AA
:1015C000FFF7C9FA204600F051FA20210148FFF741
:1015D000C4FA10BD0008014008B50121102000F038
:1015E0005BF90020009010208DF8030003208DF897
:1015F00002000120ADF8000069460948FFF7CFF965
:101600000220ADF8000069460548FFF7C8F904203C
:10161000ADF8000069460248FFF7C1F908BD0000B7
:101620000010014000BFFEE700B589B0012108208D
:1016300000F032F90121042000F02EF9002008907A
:1016400018208DF8230003208DF8220040F2C330CB
:10165000ADF8200008A93248FFF7A1F9C020ADF885
:10166000200008A92F48FFF79AF90121042000F073
:1016700003F90121022000F0FFF8002005900690F8
:101680000790ADF8160040F2E730ADF8180047209B
:10169000ADF8140005A9244800F032FE05A923483E
:1016A00000F02EFE00200190029003900490ADF80F
:1016B00010006020ADF804000020ADF80C000120FF
:1016C000ADF806000020ADF80A0001A9164800F0A8
:1016D00073FD01A9144800F0BFFD01A9134800F0F3
:1016E0006BFD01A9114800F0B7FD01A90E4800F0FB
:1016F000BBFC01A90C4800F00DFD01A90B4800F04E
:10170000B3FC01A9094800F005FD0121064800F0DD
:1017100087FC0121054800F083FC09B000BD0000F2
:10172000000C014000080140000800400004004097
:1017300010B50446002C08DBA1B2094800F0D7FD23
:101740000021074800F0D5FD08E00021044800F022
:10175000CEFD604281B2024800F0CBFD10BD00001A
:101760000008004010B50446002C08DBA1B209486F
:1017700000F0BDFD0021074800F0BBFD08E000219E
:10178000044800F0B4FD604281B2024800F0B1FDAF
:1017900010BD00000004004010B50446002C08DB1A
:1017A000A1B2094800F0A7FD0021074800F0A5FDFF
:1017B00008E00021044800F09EFD604281B202482A
:1017C00000F09BFD10BD00000004004010B5044671
:1017D000002C08DBA1B2094800F08DFD002107486C
:1017E00000F08BFD08E00021044800F084FD604219
:1017F00081B2024800F081FD10BD000000080040E9
:101800007047000070B5002100230F22C47804B394
:10181000154C246804F4E064C4F5E064210AC1F1C5
:101820000403CA40447804FA03F184781440214345
:1018300009010E4C0678A155047804F01F05012417
:10184000AC4005786D11AD0005F1E025C5F800410B
:1018500009E0047804F01F050124AC40044D06782B
:10186000761145F8264070BD0CED00E000E400E084
:1018700080E100E07047000029B1064AD2690243C6
:10188000044BDA6104E0034AD2698243014BDA6116
:10189000704700000010024029B1064A92690243D5
:1018A000044B9A6104E0034A92698243014B9A61B6
:1018B000704700000010024030B5002100220024D3
:1018C00000232D4D6D6805F00C0121B1042905D0D0
:1018D000082923D105E0294D056022E0274D056048
:1018E0001FE0254D6D6805F47012234D6D6805F4F9
:1018F0008034022505EB92421CB9214D5543056009
:101900000BE01D4D6D6805F400351DB11C4D5543B0
:10191000056002E0194D5543056002E0174D056072
:1019200000BF00BF144D6D6805F0F0010909154DA9
:101930006B5C0568DD4045600F4D6D6805F4E06146
:10194000090A104D6B5C4568DD4085600A4D6D6885
:1019500005F46051C90A0B4D6B5C4568DD40C560FC
:10196000054D6D6805F44041890B074D6B5CC568FA
:10197000B5FBF3F5056130BD0010024000127A009E
:1019800000093D003D0000204D00002000B587B05B
:1019900001210C20FFF780FF01218803FFF76CFF76
:1019A0004FF40050ADF8040003208DF80600182015
:1019B0008DF8070001A92A48FEF7F1FF4FF4004017
:1019C000ADF8040001A92648FEF7E9FF2020ADF894
:1019D000040010208DF8070001A92248FEF7DFFF60
:1019E0004FF48050ADF8040001A91D48FEF7D7FF61
:1019F0004FF48050ADF8040001A91A48FEF7CFFF5C
:101A00001020ADF8040001A91648FEF7C8FF2021F8
:101A10001448FFF7A2F80020ADF808004FF48270D8
:101A2000ADF80A000020ADF80C000220ADF80E0061
:101A30000120ADF810004002ADF812000020ADF812
:101A40001400ADF816000720ADF8180002A90648EA
:101A500000F050F80121044800F032F807B000BD52
:101A6000000C0140000801400038004070B50546F8
:101A7000002405E0601CC4B2C82C01DD002070BD4C
:101A800002210E4800F028F80028F3D029460B4820
:101A900000F02EF8002405E0601CC4B2C82C01DD63
:101AA0000020ECE70121054800F016F80028F3D0EB
:101AB000024800F01AF8C0B2E1E700000038004028
:101AC00021B1028842F04002028004E002884FF611
:101AD000BF731A40028070470246002013890B40F2
:101AE0000BB1012000E00020704701468889704753
:101AF0008181704710B50022028802F441520B88A0
:101B00004C8823438C882343CC8823430C8923436C
:101B10004C8923438C892343CC8923431A43028075
:101B2000838B4FF2FF74234083830B8A038210BDA3
:101B300008B501210820FFF7AFFE01211020FFF7B3
:101B4000ABFE0020009010208DF8030003208DF8DC
:101B500002004FF48040ADF8000069460948FEF7E6
:101B60001EFF04208DF803004020ADF800006946F8
:101B70000548FEF714FF00224FF480410148FEF7AC
:101B8000EEFF08BD000C0140001001402DE9F041BE
:101B900000203149086031480078012804D002282B
:101BA0001BD0032855D14EE001202D494860012269
:101BB00081032C48FEF7D3FF0A20FEF7A2FE002285
:101BC0004FF480412748FEF7CAFF022023490870DE
:101BD0004FF4FA702449086000BF23480068401E93
:101BE000214908600846006818B901201B4908709F
:101BF0002FE040211D48FEF7A5FF012805D11C4814
:101C00000068401C1A4908601CE019480068012857
:101C100018D917480068FEF7E5FB06464FF0333247
:101C2000144BFEF75CFB0446FEF708FC0A4908600B
:101C300000200F4908600320084908704FF47A70AB
:101C40000749486005E001200449087004494860DC
:101C500000BF00BFBDE8F081240000202800002064
:101C600018000020000C014030000020001001404E
:101C70002C0000203333FB3F704710B500F002F812
:101C800010BD00000CB500200190009033480068A2
:101C900040F480303149086000BF3048006800F4EB
:101CA000003000900198401C0190009818B90198EC
:101CB000B0F5A06FF1D12948006800F4003010B1F0
:101CC0000120009001E0002000900098012843D1FD
:101CD0002348006840F01000214908600846006869
:101CE00020F0030008600846006840F00200086029
:101CF0001A484068194948600846406848600846E4
:101D0000406840F4806048600846406820F47C10D9
:101D100048600846406840F4E8104860084600689B
:101D200040F08070086000BF0C48006800F0007050
:101D30000028F9D00948406820F0030007494860AE
:101D40000846406840F00200486000BF0348406811
:101D500000F00C000828F9D10CBD00000010024072
:101D60000020024010B52B48007830380A281FD2D6
:101D7000DFE800F0181E1E1E1E121E06050C18E0DD
:101D800025480068801C2449086012E02248006849
:101D9000801E214908600CE020480068801C1F4913
:101DA000086006E01D480068801E1C49086000E0CD
:101DB00000BF00BF184800685A2801DD5A2009E01A
:101DC0001548006810F15A0F02DA6FF0590001E06F
:101DD000114800681049086010480068002801DDBB
:101DE000002009E00D48006810F1B40F02DA6FF02E
:101DF000B30001E009480068084908600648016826
:101E0000012000F025F805480168022000F020F8C4
:101E100010BD00003C0000203400002038000020ED
:101E200010B540F2DC5244F62061482000F0BAFAC6
:101E300005480168012000F00BF804480168022001
:101E400000F006F810BD000034000020380000202B
:101E50002DE9F05F81460C46B9F1010F03D0B9F1CD
:101E6000020F38D11BE014F15A0F01DB5A2C00DDB0
:101E700031E02046FEF7A5FA0546184A184BFEF752
:101E80002EFA82460022174BFEF782F90746FEF72C
:101E9000B6FA0446A1B2144800F029FA1BE014F186
:101EA000B40F01DB002C00DD15E02046FEF789FAB7
:101EB00007460A4A0D4BFEF712FA054600220C4B64
:101EC000FEF766F98246FEF79AFA0446A1B2064882
:101ED00000F013FA00BF00BFBDE8F09F8EE3388E1C
:101EE000E338264000709740002C0140E33826C0BC
:101EF00000407F400F480068401C0E4908600E48B3
:101F00000068401C0C4908600C480068401C0B49E4
:101F100008600B480068401C0949086009480068CF
:101F2000401C0849086008480068401C06490860D1
:101F3000704700000000002004000020080000207E
:101F40000C000020100000201800002010B51348DD
:101F5000006840F0010011490860084640681049D7
:101F600008400E494860084600680E4908400B4981
:101F700008600846006820F4802008600846406831
:101F800020F4FE0048604FF41F008860FFF775FEE4
:101F90004FF000600449086010BD000000100240CE
:101FA0000000FFF8FFFFF6FE08ED00E070B5014607
:101FB0000A46501EB0F1807F01D301201BE0501E65
:101FC0004FF0E023586158170F23002804DB1C074B
:101FD000250E0B4C255406E01C07260E094C00F07C
:101FE0000F052D1F665500BF00204FF0E0239861BC
:101FF000072018610020012801D100BFFEE770BD55
:1020000000E400E018ED00E021B1028842F0800217
:10201000028004E002884FF67F731A400280704706
:1020200021B1028842F00102028004E002884FF6EA
:10203000FE731A400280704731B1B0F8442042F478
:102040000042A0F8442005E0B0F84420C2F30E029C
:10205000A0F8442070471AB183890B43838102E0C2
:1020600083898B438381704770B50024002200234D
:10207000058C4FF6FE7635400584028C8388048BF0
:102080004FF68F752C40B51E2C400D882C43751EC5
:102090002A400D892A434D882A43144DA8420BD06B
:1020A000134DA84208D0134DA84205D0124DA842A6
:1020B00002D0124DA84213D14FF6F7752A404D8930
:1020C0002A434FF6FB752A408D882A434FF6FF6559
:1020D0002B404FF6FF552B408D892B43CD892B4349
:1020E00083800483CD888586028470BD002C0140E6
:1020F00000340140004001400044014000480140DC
:102100000A460021018B4FF6F773194011430183F2
:102110007047000070B5002400220023058C4FF6A4
:10212000EF7635400584028C8388048B48F6FF7572
:102130002C404FF6FF452C400D884FF6FF7606EAFF
:1021400005252C434FF6DF752A400D8906EA051553
:102150002A434D8806EA05152A43154DA84202D0A8
:10216000144DA8421DD14FF67F752A404D894FF678
:10217000FF7606EA05152A434FF6BF752A408D887B
:1021800006EA05152A434FF6FF352B404FF2FF753F
:102190002B408D8906EA85052B43CD8906EA850506
:1021A0002B4383800483CD880587028470BD0000A3
:1021B000002C01400034014070B5002400220023AF
:1021C000058C4FF6FF6635400584028C8388848B2E
:1021D0004FF68F752C404FF6FC752C400D882C4324
:1021E0004FF6FF552A400D894FF6FF7606EA052582
:1021F0002A434D8806EA05252A43154DA84202D0F8
:10220000144DA8421DD14FF2FF752A404D894FF65B
:10221000FF7606EA05252A434FF6FF352A408D88CA
:1022200006EA05252A434EF6FF752B404DF6FF754D
:102230002B408D8906EA05152B43CD8906EA051545
:102240002B4383808483CD888587028470BD000002
:10225000002C01400034014070B50022002300240E
:10226000058C4EF6FF7635400584038C8488828B7E
:1022700048F6FF752A404FF6FF452A400D884FF675
:10228000FF7606EA05252A434DF6FF752B400D899A
:1022900006EA05352B434D8806EA05352B430B4DE1
:1022A000A84202D00A4DA84208D14BF6FF752C4037
:1022B0008D894FF6FF7606EA85152C43848082834C
:1022C000CD88A0F84050038470BD0000002C014070
:1022D000003401400A460021818B4FF2FF73194000
:1022E0004FF6FF7303EA0223194381837047818607
:1022F00070470187704781877047A0F8401070478A
:10230000002202881D4B98420ED01D4B98420BD0E4
:10231000B0F1804F08D01B4B984205D01A4B984221
:1023200002D01A4B984204D14FF68F731A404B8853
:102330001A43174B984207D0164B984204D04FF6D9
:10234000FF431A40CB881A4302808B8883850B8811
:1023500003850A4B98420BD0094B984208D00E4B8C
:10236000984205D00D4B984202D00D4B984201D1B6
:102370000B7A03860123838270470000002C014002
:10238000003401400004004000080040000C004000
:102390000010004000140040004001400044014093
:1023A000004801402DE9F04F89B082468B4600205D
:1023B00008900190029003900490012140F60400DF
:1023C000FFF76AFA4FF41060ADF8200018208DF87E
:1023D000230003208DF8220008A94448FEF7DFFA05
:1023E000ABF1010080B2ADF81800AAF1010080B293
:1023F000ADF814000020ADF81A00ADF816008DF805
:102400001C0005A93A48FFF77BFF01213848FFF778
:10241000FBFD6020ADF804000120ADF806000020AF
:10242000ADF80800ADF80C00ADF80E004FF4807068
:10243000ADF810000020ADF812002E480068FDF73E
:10244000C0FF80462C4A2D4BFDF749FF064600226F
:102450002B4BFDF79DFE0446FDF7F0FF80B2ADF873
:102460000A0001A92248FFF7FFFD08212048FFF7D5
:1024700047FE24480068FDF7A4FF06461E4A224B8B
:10248000FDF72DFF04460022204BFDF781FE80461C
:10249000FDF7D4FF80B2ADF80A0001A91448FFF798
:1024A000DBFE08211248FFF715FF0022012110482A
:1024B000FFF7D1FD192000280BDB00F01F020121DE
:1024C0009140134A430942F82310BFF34F8FBFF3E3
:1024D0006F8F00BF01210648FFF7A2FD01210448CC
:1024E000FFF7AAFD09B0BDE8F08F00000008014029
:1024F000002C0140340000208EE3388EE338264063
:102500000070974038000020E33826C000407F402C
:1025100080E100E010B5002440F22551134800F09E
:1025200013F9012813D140F22551104800F0E4F8C6
:102530000E488088C1B20E4802690069401C0C4BED
:10254000186118468154094880880A49088040F279
:102550002441064800F0F8F8012805D10348808896
:10256000C4B201200249087510BD000000500040AF
:10257000B00000200438014000B587B001210420DC
:10258000FFF78AF90020069018208DF81B00032021
:102590008DF81A004FF40070ADF8180006A9244811
:1025A000FEF7FDF904208DF81B000002ADF81800BD
:1025B00006A91F48FEF7F3F901218803FFF76CF91C
:1025C000002002900390049005904FF41650029062
:1025D0000C20ADF812000020ADF81000ADF80E0090
:1025E000ADF80C0002A9134800F0FEF8002001909D
:1025F00025208DF8040000208DF805008DF80600D8
:1026000001208DF8070001A8FFF7FCF8012240F235
:102610002551084800F0C2F8012240F22441054843
:1026200000F0BCF80121034800F075F807B000BDC8
:10263000000801400038014010B5002440F2255147
:10264000124800F081F8012810D140F225510F48BE
:1026500000F052F80D48001D0088C1B20C48026914
:102660000069401C0A4B18611846815440F224410D
:10267000064800F069F8012806D10448001D0088CA
:10268000C4B201200249087510BD000000380140A5
:102690009800002010B500242021144800F047F8CD
:1026A000012814D11148001D0088C4B210480480CC
:1026B000104890F8010150B90E4890F8001190F8B8
:1026C0000001401C0B4A82F80001104644541021BE
:1026D000064800F02CF8012807D10448001D0088A6
:1026E000C4B20120034981F8010110BD0048004037
:1026F00004380140C800002010B50022002340F635
:102700006A14A14200D100BF0A1201249440A3B26E
:10271000DC43048010BD21B1828942F400528281E1
:1027200004E082894DF6FF731A40828170470246A9
:102730000020B1F5007F00D100BF13880B400BB122
:10274000012000E00020704770B5024600240023FD
:102750000025002040F66A16B14200D100BFC1F347
:10276000421501F01F03012606FA03F3012D02D1E1
:102770009689334006E0022D02D1168A334001E0EB
:10278000968A33400C12012606FA04F41688344067
:1027900013B10CB1012000E0002070BDF0B503467C
:1027A000002400260025002040F66A17B94200D117
:1027B00000BF1846C1F3421401F01F06012707FAB3
:1027C00006F5012C01D10C3004E0022C01D11030AF
:1027D00000E014301AB107682F43076002E0076871
:1027E000AF430760F0BD00002DE9F04786B0054615
:1027F0000E460024A24600BFA1460027B08900B1C2
:1028000000BF2F462C8A4CF6FF700440F08804432A
:102810002C82AC894EF6F3100440B088318908430D
:10282000718908430443AC81AC8A4FF6FF400440F1
:10283000B0890443AC8201A8FFF73EF81F488742E5
:1028400002D1DDF810A001E0DDF80CA0A88900F4A9
:10285000004040B10AEBCA0000EB0A1031684900A1
:10286000B0FBF1F807E00AEBCA0000EB0A10316890
:102870008900B0FBF1F86420B8FBF0F004012009F6
:10288000642101FB1089A88900F4004040B1322086
:1028900000EBC900B0FBF1F000F00700044308E0D2
:1028A000322000EB09106421B0FBF1F000F00F00C2
:1028B00004432C8106B0BDE8F087000000380140D9
:1028C000C1F308028280704700BFFEE710B5002404
:1028D0009E4890F8010100B910BD9C4890F8000195
:1028E00020B90020994981F80101F5E7974890F84F
:1028F0000001052804DA0020944981F8010118E15B
:102900009248007891494978084490498978084468
:102910008E49C97808448D4909790844C4B28B4866
:102920004079A04200D004E18848807805286FD221
:10293000DFE800F00324496F940000218448FFF78A
:10294000DAFC00218248FFF7D8FC00218148FFF71C
:10295000D2FC00217F48FFF7D0FC00217D48FFF723
:10296000C6FC00217B48FFF7C4FC00217848FFF734
:10297000BEFC00217648FFF7BCFCB5E040F2262102
:102980007348FFF7B8FC00217148FFF7B6FC40F22E
:1029900026217048FFF7AFFC00216E48FFF7ADFC21
:1029A00040F226216A48FFF7A2FC00216848FFF7A1
:1029B000A0FC40F226216748FFF799FC00216548FA
:1029C000FFF797FC90E000216148FFF794FC4FF47B
:1029D00016715F48FFF791FC00215E48FFF78BFC02
:1029E0004FF416715B48FFF788FC00215848FFF749
:1029F0007EFC4FF416715648FFF77BFC00215548CA
:102A0000FFF775FC4FF416715248FFF772FC6BE04C
:102A100049E000214E48FFF76EFC40F226214C4869
:102A2000FFF76BFC00214B48FFF765FC40F22621C5
:102A30004848FFF762FC40F226214548FFF757FC63
:102A400000214348FFF755FC40F226214148FFF79B
:102A50004EFC00213F48FFF74CFC45E040F22621A8
:102A60003B48FFF748FC00213948FFF746FC40F29D
:102A700026213848FFF73FFC00213648FFF73DFC90
:102A800000213348FFF733FC40F226213048FFF79E
:102A900030FC00212F48FFF72AFC40F226212D4868
:102AA000FFF727FC20E000212948FFF724FC002144
:102AB0002748FFF722FC00212648FFF71CFC0021D5
:102AC0002448FFF71AFC00212248FFF710FC0021E0
:102AD0002048FFF70EFC00211D48FFF708FC0021ED
:102AE0001B48FFF706FC00BF00BF1848C078401F16
:102AF000052818D2DFE800F003070B0F1300382079
:102B00001549087013E03720134908700FE0392089
:102B1000114908700BE035200F49087007E030209C
:102B20000D49087003E038200B49087000BF00BF52
:102B300000BF4FF480710548FDF71FFB00200349DB
:102B400081F8000181F8010100BFC5E6C80000203E
:102B500000080040000400403C00002000B587B0A1
:102B600001210820FEF798FE01218804FEF784FE6B
:102B70000020069003208DF81A0018208DF81B0005
:102B80004FF48060ADF8180006A92348FDF707FF51
:102B900048208DF81B004FF40060ADF8180006A91E
:102BA0001D48FDF7FCFE0020029003900490059064
:102BB0004FF4165002900020ADF814000C20ADF830
:102BC00012000020ADF81000ADF80E00ADF80C00BA
:102BD00002A91248FFF708FE012240F225510F48D2
:102BE000FFF7DCFD012240F224410C48FFF7D6FD3F
:102BF00027208DF8040000208DF805008DF80600D0
:102C000001208DF8070001A8FEF7FCFD0121034813
:102C1000FFF781FD07B000BD000C014000480040F7
:102C20000FB4054B10B503A9044A029800F02CF824
:102C300010BC5DF814FB0000E92D000854000020D2
:102C40000FB4084B10B504A902AA039800F01CF8B1
:102C5000044602A9002000F0C1F8204610BC5DF82F
:102C600014FB0000DD2D000802E008C8121F08C197
:102C7000002AFAD170477047002001E001C1121FFD
:102C8000002AFBD1704700002DE9FF4F89B09B4619
:102C90000446002506E025280BD05A460B9990479C
:102CA000641C6D1C20780028F5D10DB02846BDE8C5
:102CB000F08F0027B8460122474900E0074314F887
:102CC000013F203B02FA03F00842F7D120782E287A
:102CD00019D114F8010F47F004072A280ED06FF01D
:102CE0002F022078A0F1300109290CD808EB8801C7
:102CF00002EB410100EB0108641CF2E70A98641C36
:102D000050F8048B0A9020780028CED0642808D090
:102D1000692806D075281ED05A460B9990476D1C1D
:102D200058E00A994FF00A0901C90A91002802DA0D
:102D300040422D2102E0390504D52B218DF82010C9
:102D4000012103E0F90704D02021F7E78A4608AE05
:102D50000DE00021FAE70A994FF00A0901C90A912A
:102D6000F7E74946FDF783FB303106F8011D0028DF
:102D7000F7D1ADEB060000F12009780701D44FF040
:102D80000108C84502DDA8EB090000E000208046EC
:102D9000002706E008A85A46C05D0B9990476D1CB5
:102DA0007F1C5745F6DB04E030205A460B999047CC
:102DB0006D1CB8F10001A8F10108F5DC05E016F87A
:102DC000010B5A460B9990476D1CB9F10001A9F10E
:102DD0000109F4DC641C65E7092801000A68531C3A
:102DE0000B6010707047000070B504460D4600BFC0
:102DF00040210548FFF79BFC0028F9D0A1B202480A
:102E0000FFF75EFD204670BD003801400EB500247E
:102E1000002504200246BC4B19684FF6FF031940F9
:102E2000BA4B0B4343EA0221B74B196000BFFDF7D1
:102E3000E5FF4FF4E150FFF7B9F8FEF7CDFBFDF7E2
:102E4000CDFBFDF7E7FFFFF797FBB1A0FFF7E8FE2B
:102E5000B3A0FFF7E5FEFEF76FF84FF47840A0232C
:102E60008022002100900846FEF743F80020102140
:102E70004FF6FF720346CDE900210290ABA2014656
:102E8000FEF7ECF9002010214FF6FF720346CDE962
:102E900000210290AAA23820FEF74CFB002010214E
:102EA0004FF6FF720346CDE900210290A5A2202132
:102EB000FEF7D4F9002010214FF6FF720346CDE94A
:102EC00000210290A1A220214020FEF7C7F9002096
:102ED00010214FF6FF720346CDE9002102909DA21A
:102EE0003021FEF7BBF9002010214FF6FF72034698
:102EF000CDE90021029099A230214020FEF7AEF9E1
:102F0000002010214FF6FF720346CDE90021029008
:102F100094A28021FEF7A2F9FDF77EFBFEF784FB69
:102F2000FDF766FEFEF704FEFEF77AFFFFF716FEDA
:102F3000E8E08F4800688E494968884204D3002041
:102F40008B490860FEF722FE8A480068B0F5FA6FE8
:102F50002DD300208749086087480078052190FB21
:102F6000F1F201FB1200042821D140F20D20FEF7FE
:102F7000F9FB40F20D20FEF7DBFB40F20D20FEF7DF
:102F800025FC40F22620FEF707FC7C4800682D282F
:102F90000DD27B48FEF7E6FB7948FEF7C9FB40F20D
:102FA0003930FEF713FC40F25230FEF7F5FB75485E
:102FB0000068B0F5967F04D3002072490860FEF7E0
:102FC000D1FE71480068642861D900206E4908600C
:102FD000FDF738FF0446012C56D1042566480078D9
:102FE000401C6549087008460078052190FBF1F205
:102FF00001FB1200052846D2DFE800F0030D1B2973
:1030000037004FF4784090237022802100905020A8
:10301000FDF76FFF37E0002010214FF6FF720346E7
:10302000CDE90021029059A280215020FEF716F927
:1030300029E0002010214FF6FF720346CDE9002160
:10304000029054A280215020FEF708F91BE00020D6
:1030500010214FF6FF720346CDE9002102904FA2E6
:1030600080215020FEF7FAF80DE0002010214FF6E5
:10307000FF720346CDE9002102904AA28021502030
:10308000FEF7ECF800BF02E0022C00D1082547480B
:10309000006841F2883188421FD900204349086006
:1030A0004348C06880F001004149C8603348016866
:1030B00040A0FFF7B5FD314841A102684348FFF742
:1030C000BFFD002010214FF6FF720346CDE900211D
:1030D00002903E4A5021FEF72DFA3D48006840F626
:1030E000B83188420CD9002039490860002D07DD2D
:1030F000681EC5B23748006880F400403549086052
:10310000FDF732FD15E700000CED00E00000FA05C8
:1031100049204C6F7665204348494E410D0A000016
:10312000CED2B0AED6D0B9FA0D0A0000D6A3D6DD05
:10313000B9A4B3CCBCBCCAF5D1A7D4BA0000000076
:1031400031360000B8DFB8BBC1D60000D4F8B9FAF8
:10315000C7EC0000C0F5D6C7B4CF0000BACDC9D9BE
:10316000BDDC0000B5B1C7B0C4A3CABDA3BA00009E
:10317000180000200C000020140000202400002073
:103180003EFEFFFF1000002004000020C0B6D1C0AA
:1031900000000000D1ADBCA300000000BCE0BFD81F
:1031A00000000000B1DCD5CF0000000000000020CE
:1031B000001001406C656E203D2025640D0A000062
:1031C0006C656E203D202564202000005800002002
:1031D000080000200C080140000000000000000072
:1031E00000000000000004040404040000040000C7
:1031F00014140A00000000000000000000000A0A89
:103200001F0A0A1F0A0A000000040E1505060C1406
:10321000150E0400000012150D152E2C2A120000A8
:103220000000040A0A3615152916000002020100E2
:10323000000000000000000010080804040404045A
:103240000808100002040408080808080404020022
:1032500000000004150E0E15040000000000000818
:10326000083E080800000000000000000000000008
:103270000202010000000000003F0000000000000A
:1032800000000000000000000002000000201010FC
:10329000080804040202010000000E1111111111AE
:1032A000110E00000000040604040404040E0000D3
:1032B00000000E1111080402011F000000000E1191
:1032C000100C1010110E00000000080C0C0A091F51
:1032D000081C000000001F01010F1110110E00005A
:1032E00000000C12010D1311110E000000001E1041
:1032F000080804040404000000000E11110E11114E
:10330000110E000000000E11111916100906000020
:1033100000000000040000000004000000000000A5
:10332000000400000004040000001008040202046D
:1033300008100000000000003F003F0000000000F7
:1033400000000204081010080402000000000E1122
:10335000110804040004000000001C22292D2D1D6A
:10336000221C0000000004040C0A0A1E1233000094
:1033700000000F12120E1212120F000000001E1198
:1033800001010101110E000000000F1212121212B1
:10339000120F000000001F120A0E0A02121F000086
:1033A00000001F120A0E0A020207000000001C1291
:1033B00001013911120C000000003312121E12120A
:1033C0001233000000001F0404040404041F000062
:1033D00000003E080808080808080907000037121E
:1033E0000A060A1212370000000007020202020257
:1033F000223F000000003B1B1B1B1515153500006C
:1034000000003B1216161A1A1217000000000E11C7
:1034100011111111110E000000000F12120E020204
:103420000207000000000E1111111117190E1800EB
:1034300000000F12120E0A121237000000001E11B7
:1034400001060810110F000000001F1504040404F9
:10345000040E00000000331212121212120C0000AF
:1034600000003312120A0A0C0404000000001515B3
:1034700015150E0A0A0A000000001B0A0A04040AB5
:103480000A1B000000001B0A0A0A0404040E0000C4
:1034900000001F0908040402121F00001C04040499
:1034A0000404040404041C000002020404040808C8
:1034B000081010000E0808080808080808080E0080
:1034C000040A0000000000000000000000000000EE
:1034D000000000000000003F0204000000000000A7
:1034E0000000000000000000000C121C123C000054
:1034F00000030202020E1212120E00000000000071
:10350000001C1202120C000000181010101C1212E5
:10351000123C000000000000000C121E021C000003
:1035200000182404041E0404041E0000000000000F
:10353000003C120C021C221C00030202020E12129A
:10354000123700000004040000060404040E00000A
:1035500000080800000C0808080808070003020219
:10356000021A0A060A1300000007040404040404F3
:10357000041F000000000000000F151515150000C5
:1035800000000000000F12121237000000000000BF
:10359000000C1212120C000000000000000F1212AA
:1035A000120E020700000000001C1212121C10383C
:1035B00000000000001B06020207000000000000DF
:1035C000001E020C101E000000000004041E040473
:1035D000041C000000000000001B1212123C00003E
:1035E00000000000001B0A0A0404000000000000A4
:1035F0000015150E0A0A000000000000001B0A0456
:103600000A1B000000000000003312120C08040323
:1036100000000000001E0804041E0000180808082E
:10362000080C08080808180008080808080808080E
:103630000808080806040404040804040404060036
:10364000160900000000000000000000000000005B
:103650000000000000000000000000000000000862
:1036600008080808080800001818000000486C2422
:103670001200000000000000000000000000002414
:1036800024247F1212127F12121200000000081C64
:103690002A2A0A0C1828282A2A1C080800000022B6
:1036A000251515152A585454542200000000000C0A
:1036B0001212120A76252911916E000000060604E6
:1036C0000300000000000000000000000040201087
:1036D000100808080808081010204000000204081C
:1036E000081010101010100808040200000000005C
:1036F00008086B1C1C6B080800000000000000009C
:10370000080808087F0808080800000000000000FA
:103710000000000000000000060604030000000096
:1037200000000000FE00000000000000000000009B
:1037300000000000000000000606000000008040BD
:1037400040202010100808040402020000000018A5
:103750002442424242424242241800000000000833
:103760000E08080808080808083E00000000003C91
:103770004242422020100804427E00000000003C2B
:103780004242201820404042221C0000000000203D
:103790003028242422227E20207800000000007E91
:1037A0000202021A26404042221C0000000000389B
:1037B0002402021A26424242241800000000007E21
:1037C0002222101008080808080800000000003C29
:1037D0004242422418244242423C000000000018A9
:1037E0002442424264584040241C00000000000073
:1037F0000000181800000000181800000000000069
:10380000000000080000000000080804000000405C
:1038100020100804020408102040000000000000EE
:1038200000007F0000007F00000000000000000298
:103830000408102040201008040200000000003C92
:103840004242464020101000181800000000001CE2
:10385000225A555555552D42221C000000000008E3
:1038600008181414243C224242E700000000001F04
:103870002222221E22424242221F00000000007C1F
:103880004242010101010142221C00000000001F10
:103890002242424242424242221F00000000003FB8
:1038A0004212121E12120242423F00000000003F6C
:1038B0004212121E12120202020700000000003C17
:1038C0002222010101712122221C0000000000E7D8
:1038D000424242427E42424242E700000000003E35
:1038E0000808080808080808083E00000000007CD6
:1038F00010101010101010101010110F0000007791
:1039000022120A0E0A12122222770000000000077B
:103910000202020202020202427F0000000000775F
:10392000363636362A2A2A2A2A6B0000000000E39F
:1039300046464A4A52525262624700000000001C4A
:103940002241414141414141221C00000000003F11
:10395000424242423E020202020700000000001CF6
:103960002241414141414D53321C60000000003F63
:103970004242423E1212222242C700000000007C56
:103980004242020418204042423E00000000007FF4
:103990004908080808080808081C0000000000E79B
:1039A0004242424242424242423C0000000000E7A2
:1039B0004242222424141418080800000000006B5E
:1039C000494949495555362222220000000000E7A6
:1039D000422424181818242442E70000000000772D
:1039E0002222141408080808081C00000000007EA9
:1039F0002120101008040442423F0000007808080B
:103A000008080808080808080808780000000202EA
:103A1000040408080810102020204040001E101048
:103A2000101010101010101010101E00003844005C
:103A30000000000000000000000000000000000086
:103A40000000000000000000000000FF0006080069
:103A50000000000000000000000000000000000066
:103A60000000003C4278444242FC00000000000399
:103A70000202021A26424242261A000000000000FA
:103A800000000038440202024438000000000060D8
:103A9000404040784442424264D8000000000000A8
:103AA0000000003C427E0202423C0000000000F0A8
:103AB0008808087E08080808083E0000000000008A
:103AC0000000007C22221C023C42423C0000000319
:103AD0000202023A4642424242E700000000000C65
:103AE0000C00000E08080808083E00000000003026
:103AF00030000038202020202020221E000000035B
:103B000002020272120A1612227700000000000E52
:103B10000808080808080808083E0000000000001F
:103B20000000007F9292929292B700000000000085
:103B30000000003B4642424242E700000000000015
:103B40000000003C42424242423C000000000000B3
:103B50000000001B26424242221E02070000000015
:103B60000000007844424242447840E000000000F7
:103B7000000000774C040404041F00000000000053
:103B80000000007C42023C40423E00000000000079
:103B90000008083E0808080808300000000000007F
:103BA000000000634242424262DC0000000000006C
:103BB000000000E742242414080800000000000070
:103BC000000000EB4949555522220000000000008A
:103BD0000000007624181818246E00000000000071
:103BE000000000E742242414180808070000000021
:103BF0000000007E22100808447E000000C0202043
:103C000020202010202020202020C0001010101084
:103C100010101010101010101010101000060808CE
:103C20000808081008080808080806000C32C20036
:103C3000000000000000000000000000D0C54400AB
:103C40008400FA070200F3030200F2030200F20309
:103C50001202F2031202D3AF0000FF010401BC0004
:103C6000AA031202A9010000FE0352025202FF073A
:103C7000B4EF820084008000F007870084004401D4
:103C80004402240414040A00F107B5E710001000F0
:103C9000FF0111011101FF0111011101FF011104C7
:103CA0001004E007D7D30000FC0180004000200092
:103CB0002000FF0720002000200020003800D0C591
:103CC00010021004D07F080008008C3F0C000A008E
:103CD000893F08000800883F88208820883F882086
:103CE000D3AF0000FC0F1008F005103D48218820DC
:103CF000442922120000FC1F241224122412FF7FE8
:103D00000000B4EF0002040208020802E07F000293
:103D10000F02080508098810482028200800140010
:103D2000E27F0000B5E7800080008000FC1F841067
:103D300084108410FC1F841084108410FC1F845095
:103D400080408040007FD7D30000FE1F00080004A1
:103D5000000280018000FF7F8000800080008000E2
:103D600080008000A0004000D6D08000800080004D
:103D70008000FC1F84108410841084108410FC1FA9
:103D800084108000800080008000B9FA0000FE3FAF
:103D900002200220FA2F82208220F2278220822213
:103DA0008224FA2F02200220FE3F0220C0F50000EC
:103DB000FE3F20022002FC1F24122412FC1F800060
:103DC0008000FF7FA00290048C1883608000D6C71B
:103DD00004007C3E12221022FF222822443E0200D0
:103DE000F80F08080808F80F08080808F80F08086E
:103DF000B4CF00113F12120A923F9E2092209220CF
:103E00009E3F12041208322A9E4293429052501C46
:103E10001000D6A34400487C2844FE24102410142B
:103E20001024FF25104410442844482C8414820494
:103E300001040004D6DD08200821082108210821FA
:103E40002A254A294A290921082108210821042173
:103E5000042102200120B9A400000000FE3F8000E0
:103E60008000800080008000800080008000800052
:103E70008000FF7F00000000B3CC1000B83F8F200F
:103E800088208820BF3F08000C009C7F2A042A0459
:103E9000893F08040804C87F0800BCBC0804080463
:103EA0000804C87F3F0408040804A83F18210C1127
:103EB0000B12080A0804080A8A116460CAF5800017
:103EC000800480088008FE3FC001A002A002900488
:103ED0008808841082208140800080008000D1A763
:103EE0004410881088080004FE7F02400120F80773
:103EF00000028001FF7F800080008000A000400061
:103F0000D4BA00021E04D27F4A402A20861F0A002B
:103F10001200D27F120916090A09824882484270AB
:103F20002200B8DF40008000FF7F0000F00710048F
:103F30001004F0070000FE3F0220F2271224122492
:103F4000F2270230B8BB40008000FE7F0240FD3FF8
:103F50000000F80F0808F80F0000FC1F8410FC1F79
:103F60008410FC1F0410C1D60804080408040804C7
:103F7000BF7F08040C0E1C0E2A150A15892448441C
:103F80002804080408040804D4F810042002FC1FC4
:103F900084109414A412FC1F0000F80F08080808ED
:103FA000F80F08080808F80F0808B9FA0000FE3FE3
:103FB00002200220FA2F82208220F22782208222F1
:103FC0008224FA2F02200220FE3F0220C7EC80004C
:103FD0000001FC7F0400040104010401F43F04011A
:103FE0008402840244044204220811100860BACDFD
:103FF000200070001E00103E1022FF221022182206
:104000003822542254221222113E10221000100095
:10401000C9D9800080008000900490088810882012
:1040200084288208800400020001800040003000E3
:104030000E00BDDC800080008000FE3FC001A002B9
:1040400090048808841083608000000024114422BA
:1040500042220120B5B1800084108810900890049D
:104060008000FE1F001000100010FC1F0010001048
:104070000010FE1F0010C7B0080810081004FF7FD2
:1040800000007C10441244127C12441244127C1230
:104090004410441054142408C4A388088808E83F36
:1040A00088083F00C81F4C10DC1F6A10CA1F090295
:1040B000E83F0805880848102860CABD00120022A1
:1040C00000220002FF7F000200027C0210021002A8
:1040D00010041044F0481E5004600040A3BA0000D1
:1040E00000000000000000000000000000000000D0
:1040F0000C000C0000000C000C0000000000B0B42C
:10410000080208040804C87F5F4028220802D87FFC
:104110000C110B118810080B0804080A0A11C4209E
:10412000BCFC04080408DC3E8428827F5E28453EEF
:10413000E4089F3EA408A47F44085408AC00147F00
:104140000000C0B610041004FF7F100420012401F9
:10415000243F2405A4080000FC1F2412241224126A
:10416000FF7F0000D1C00000FC3F000200020802F7
:1041700008020402FC7F80024002200210020802B2
:10418000060280020001D1AD083CE80724042204A5
:10419000E97F2804A43FA620A520A43FA420A43F93
:1041A000942094208C3F8420BCA3000204040804C3
:1041B000E87F000900094F294849284988088808EC
:1041C000480A28041400E27F0000CAD30400883F94
:1041D00088209F209024882488249C24AA24A92A0B
:1041E000080A08090809884848482870C6B5080020
:1041F000887F0A043A028A3F8A20FF248024882488
:10420000AA24AA24AA22210A10118C204340BCE02F
:1042100020022402243E240224092411A410200098
:104220000000FC1F2412241224122412FF7F00001D
:10423000BFD8080208040804C87F5F4028298810F6
:1042400058200C008B3F0804080408040804EA7F87
:104250000400B1DC0008E211247D24012045E0299E
:10426000277C1410F4112C7D2411E41124110A0070
:10427000F17F0000D5CF0004BE3F2211120AD27F89
:104280000A00923F9220A23FA220A23F1604CA7FBA
:104290000204020402040000B842000800000020EA
:1042A00058000000682C0008104300085800002047
:1042B00078050000782C00080000000000000000D5
:1042C00000000000000000000000000000000000EE
:1042D000000000006400000000000000000000007A
:1042E00001000000000000000000000000000000CD
:1042F000A6FFFFFF0000000000010203040102030B
:104300000406070809020406080000000000000077
:0400000508000131BD
:00000001FF
